{
    "header" : {
        "gasUsed" : "0x4e83",
        "size" : "0x90",
        "coinbase" : "0x0000000000000000000000000000000000000000",
        "extraData" : "0x000000000000000000000000000000000000000000000000000000000000000048b159bb699e4ed84fc569e402b2bf079e707c0ac954535f2f66f6ad7cdf1d0853b601b8ffe8dcbe0d48637b9aa82eb29f801af9972658a210534e599b24bff001",
        "number" : "0x8524",
        "bloom" : "0x00000000000000000000000000000000000000000000000000000000000000000000000000000000000000000000000000000000000000000000000000000000000000000000000000004000000000000000000000400000000000000000000000000000000000000000000000000000000000000000040000040000000000000000000000000000000000000000000000000000000000020000000000000000000000000000000010000000000000000001000000000000000000000000000000000000000000000000000000000800000000000000000000000002000000000000000000000000000000000000000000000000000000000000000000000000",
        "timestamp" : "0x60eff63b",
        "difficulty" : "0x2",
        "gasLimit" : "0xf4240",
        "stateRoot" : "0xcbba7362f4e3ca219d504ab2d7e8ac1b494ade96108cedc88a41c3d804d468c8",
        "transactionsTrie" : "0x316916aa595fa9f9df699583cf2d4c330c19117894552c364989d3ead0fb6c38",
        "parentHash" : "0x0e56149fc36345f6550cad501d4197dfa9f5a7ac4fdc5d9366f95dd4921cb177",
        "mixHash" : "0x0000000000000000000000000000000000000000000000000000000000000000",
        "nonce" : "0x0000000000000000",
        "receiptTrie" : "0x9f2cc37483d0719ba635d044766c5bc24321938fa5255acf956a30d3820b3501"
    },
    "transactions" : [
        {
        "value" : "0x0",
        "from" : "0x20965f3321cf4811cf0686546a69216ff04628ac",
        "transactionIndex" : "0x0",
        "s" : "0x595ef50d97125b66d8191dc7e8a67ffca283e60ca8cdc4fc15fb40b18e0bba44",
        "gasLimit" : "0xdfde",
        "nonce" : "0x4",
        "blockHash" : "0xdedd98291b4282f9ed6e8148288506250b46cff0344cc3ef3916e732c666ebb6",
        "blockNumber" : "0x8524",
        "v" : "0x60ae",
        "data" : "0x2e1a7d4d0000000000000000000000000000000000000000000000000de0b6b3a7640000",
        "to" : "0x7db395ed6d3d7b191bcb33f82d9a336d71a4b4cd",
        "r" : "0xcc4d729d18178842ce10b02e553a6489b97227d23c23410a3ee2d7aaa0c9466f",
        "hash" : "0x241246ae8397e2f06e1d66edb61bd5aac31c83786d190fc25580bf9b9f227b93",
        "gasPrice" : "0x3b9aca00"
     }
    ],
    "receipt" : {
        "contractAddress" : null,
        "bitvector" : "0x00000000000000000000000000000000000000000000000000000000000000000000000000000000000000000000000000000000000000000000000000000000000000000000000000004000000000000000000000400000000000000000000000000000000000000000000000000000000000000000040000040000000000000000000000000000000000000000000000000000000000020000000000000000000000000000000010000000000000000001000000000000000000000000000000000000000000000000000000000800000000000000000000000002000000000000000000000000000000000000000000000000000000000000000000000000",
        "cumulativeGasUsed" : "0x4e83",
        "gasUsed" : "0x4e83",
        "transactionIndex" : "0x0",
        "blockNumber" : "0x8524",
        "transactionHash" : "0x241246ae8397e2f06e1d66edb61bd5aac31c83786d190fc25580bf9b9f227b93",
        "status" : "0x1",
        "logs" : [
           {
              "address" : "0x7db395ed6d3d7b191bcb33f82d9a336d71a4b4cd",
              "logIndex" : "0x0",
              "blockHash" : "0xdedd98291b4282f9ed6e8148288506250b46cff0344cc3ef3916e732c666ebb6",
              "topics" : [
                 "0x7fcf532c15f0a6db0bd6d0e038bea71d30d808c7d98cb3bf7268a95bf5081b65",
                 "0x00000000000000000000000020965f3321cf4811cf0686546a69216ff04628ac"
              ],
              "transactionHash" : "0x241246ae8397e2f06e1d66edb61bd5aac31c83786d190fc25580bf9b9f227b93",
              "data" : "0x0000000000000000000000000000000000000000000000000de0b6b3a7640000",
              "transactionIndex" : "0x0",
              "blockNumber" : "0x8524"
           }
        ],
        "blockHash" : "0xdedd98291b4282f9ed6e8148288506250b46cff0344cc3ef3916e732c666ebb6",
        "to" : "0x7db395ed6d3d7b191bcb33f82d9a336d71a4b4cd",
        "from" : "0x20965f3321cf4811cf0686546a69216ff04628ac"
     }
    ,
    "log" : {
        "blockHash" : "0xdedd98291b4282f9ed6e8148288506250b46cff0344cc3ef3916e732c666ebb6",
        "blockNumber" : "0x8524",
        "logIndex" : "0x0",
        "data" : "0x0000000000000000000000000000000000000000000000000de0b6b3a7640000",
        "topics" : [
            "0x7fcf532c15f0a6db0bd6d0e038bea71d30d808c7d98cb3bf7268a95bf5081b65",
            "0x00000000000000000000000020965f3321cf4811cf0686546a69216ff04628ac"
        ],
        "transactionIndex" : "0x0",
        "transactionHash" : "0x241246ae8397e2f06e1d66edb61bd5aac31c83786d190fc25580bf9b9f227b93",
        "address" : "0x7db395ed6d3d7b191bcb33f82d9a336d71a4b4cd"
    },
    "log_raw" : {
        "address" : "0x7db395ed6d3d7b191bcb33f82d9a336d71a4b4cd",
        "topics" : [
            "0x7fcf532c15f0a6db0bd6d0e038bea71d30d808c7d98cb3bf7268a95bf5081b65",
            "0x00000000000000000000000020965f3321cf4811cf0686546a69216ff04628ac"
        ],
        "data":"0x0000000000000000000000000000000000000000000000000de0b6b3a7640000"
    },
    "log_serialize" : {
        "serialize" : "0xf87a947db395ed6d3d7b191bcb33f82d9a336d71a4b4cdf842a07fcf532c15f0a6db0bd6d0e038bea71d30d808c7d98cb3bf7268a95bf5081b65a000000000000000000000000020965f3321cf4811cf0686546a69216ff04628aca00000000000000000000000000000000000000000000000000de0b6b3a7640000"
    }
}